:100000000C949E000C94A80B0C94810B0C94CF0BB9
:100010000C94CF0B0C94CF0B0C94C6000C945F0A7D
:100020000C94C6000C94C6000C94C6000C94C60038
:100030000C94C6000C94C6000C94C6000C94C60028
:100040000C94370B0C94C6000C94050B0C94DF0A2F
:100050000C94C6000C94C6000C94C6000C94C60008
:100060000C94C6000C94C600000000002500280077
:100070002B000000000023002600290000000008DB
:10008000000201000003040700000000000000005F
:100090000200000000240027002A000102040810CA
:1000A00020408001020408102001020408102004EE
:1000B000040404040404040202020202020303030F
:1000C0000303036661696C65642C20636F646520BB
:1000D00000737563636573732100526164696F20F7
:1000E000496E697469616C697A696E67202E2E2E7B
:1000F0002000206270730044617461726174653A1B
:1001000020005472616E6D697373696F6E20737530
:10011000636365737321006661696C65642C206399
:100120006F6465200074696D656F75742100746F6C
:100130006F206C6F6E672100D90B761111241FBEE2
:10014000CFEFD8E0DEBFCDBF23E0A2ECB2E001C02C
:100150001D92A13EB207E1F712E0A0E0B1E0E8E4B1
:10016000F2E302C005900D92A23CB107D9F710E06E
:10017000CDE9D0E004C02197FE010E946C14CC3977
:10018000D107C9F70E94EB0C0C9417190C940000CE
:10019000AF92BF92CF92DF92EF92FF920F931F9395
:1001A000CF93DF936C017B018B01040F151FEB01D3
:1001B0005E01AE18BF08C017D10759F06991D6018A
:1001C000ED91FC910190F081E02DC6010995892BFC
:1001D00079F7C501DF91CF911F910F91FF90EF90BB
:1001E000DF90CF90BF90AF900895FC01538D448D68
:1001F000252F30E0842F90E0821B930B541710F0D2
:10020000CF96089501970895FC01918D828D9817DE
:1002100061F0A28DAE0FBF2FB11D5D968C91928DB6
:100220009F5F9F73928F90E008958FEF9FEF0895E7
:10023000FC01918D828D981731F0828DE80FF11DB0
:10024000858D90E008958FEF9FEF0895FC01918DCB
:10025000228D892F90E0805C9F4F821B91098F73C4
:10026000992708958FED92E00E94260121E0892BC5
:1002700009F420E0822F089580E090E0892B29F096
:100280000E94320181110C9400000895FC01A48D9C
:10029000A80FB92FB11DA35ABF4F2C91848D90E0A8
:1002A00001968F739927848FA689B7892C93A0898B
:1002B000B1898C91837080648C93938D848D981315
:1002C00006C00288F389E02D80818F7D80830895A8
:1002D000EF92FF920F931F93CF93DF93EC0181E096
:1002E000888F9B8D8C8D98131AC0E889F98980813D
:1002F00085FF15C09FB7F894EE89FF896083E88970
:10030000F98980818370806480839FBF81E090E061
:10031000DF91CF911F910F91FF90EF900895F62EEE
:100320000B8D10E00F5F1F4F0F731127E02E8C8D88
:100330008E110CC00FB607FCFACFE889F9898081CD
:1003400085FFF5CFCE010E944601F1CFEB8DEC0F7A
:10035000FD2FF11DE35AFF4FF0829FB7F8940B8FEA
:10036000EA89FB8980818062CFCF0F931F93CF935F
:10037000DF938C01D0E0C0E0F801EC0FFD1F649129
:10038000662341F08FED92E00E946801892B11F005
:100390002196F2CFCE01DF91CF911F910F91089559
:1003A000CF93DF93EC01888D8823B9F0AA89BB89AC
:1003B000E889F9898C9185FD03C0808186FD0DC097
:1003C0000FB607FCF7CF8C9185FFF2CF808185FFB8
:1003D000EDCFCE010E944601E9CFDF91CF91089584
:1003E000833081F028F4813099F08230A9F00895AB
:1003F0008730A9F08830C9F08430B1F48091800052
:100400008F7D03C0809180008F7780938000089556
:1004100084B58F7784BD089584B58F7DFBCF80919F
:10042000B0008F778093B00008958091B0008F7DE9
:10043000F9CFCF93DF93282F30E0F901E458FF4F35
:100440008491F901E556FF4FD491F901E155FF4F31
:10045000C491CC23A1F081110E94F001EC2FF0E0B7
:10046000EE0FFF1FEE58FF4FA591B491EC91ED23D5
:1004700081E090E009F480E0DF91CF91089580E081
:1004800090E0FACF1F93CF93DF93282F30E0F9014C
:10049000E458FF4F8491F901E556FF4FD491F901DB
:1004A000E155FF4FC491CC23A9F0162F81110E9472
:1004B000F001EC2FF0E0EE0FFF1FE859FF4FA59180
:1004C000B4918FB7F894EC91111108C0D095DE2348
:1004D000DC938FBFDF91CF911F910895DE2BF8CF72
:1004E000CF93DF9390E0FC01E556FF4F24918155B7
:1004F0009F4FFC0184918823D1F090E0880F991FD1
:10050000FC01EF56FF4FA591B491FC01E859FF4F54
:10051000C591D49161110EC09FB7F8948C91E22FD0
:10052000E0958E238C932881E223E8839FBFDF919F
:10053000CF9108958FB7F894EC91E22BEC938FBF95
:10054000F6CF3FB7F8948091D4029091D502A09154
:10055000D602B091D70226B5A89B05C02F3F19F04F
:100560000196A11DB11D3FBFBA2FA92F982F882733
:10057000BC01CD01620F711D811D911D42E0660F0E
:10058000771F881F991F4A95D1F708958F929F92E0
:10059000AF92BF92CF92DF92EF92FF924B015C013C
:1005A0000E94A1026B017C010E94A1026C197D09CD
:1005B0008E099F09683E734081059105A8F321E0EB
:1005C000821A9108A108B10888EEC80E83E0D81EEF
:1005D000E11CF11C81149104A104B10429F7FF90DE
:1005E000EF90DF90CF90BF90AF909F908F90089545
:1005F00008958F3F11F00C9442020895CF93DF933A
:10060000EC01E885F98585858F3F19F061E00E944E
:100610007002E885F98561E085850E94F90261E054
:1006200070E080E090E00E94C602E885F98560E015
:1006300085850E94F90265E070E080E090E0DF913E
:10064000CF910C94C6028EBD00000DB407FEFDCF05
:100650008EB50895BF92CF92DF92EF92FF920F93E3
:100660001F93CF93DF93EC01F62EB42E69012889F6
:1006700099898091DD02882361F08FB7F8943091D9
:10068000DD02313021F53DB33093CC023DB33DBBAB
:100690008FBF2CBD9DBD60E08B850E94F9028B2D24
:1006A0008F290E9423038A858F1114C0C114D1049D
:1006B00031F18601F12CC8018C199D098E159F0519
:1006C000F0F4F80181918F010E942303F4CF80930D
:1006D000CC02DFCF89858F1112C00115110579F089
:1006E0006801F12CC601801B910B8E159F0538F413
:1006F00080E00E942303F60181936F01F3CF61E054
:100700008B850E94F9028091DD02882351F09FB70A
:10071000F8942091DD028091CC02213061F48DBBF0
:100720009FBFDF91CF911F910F91FF90EF90DF90CE
:10073000CF90BF9008958FBFF4CFEF920F931F9388
:10074000CF93DF931F92CDB7DEB7462F1982EE24E9
:10075000E3948E010F5F1F4F30E020E0FC016185C4
:100760000E942A0389810F90DF91CF911F910F91F1
:10077000EF90089561E0FC01808591850E949D03C2
:10078000807890E00895EF920F931F93CF93DF93BB
:100790001F92CDB7DEB78C010E94BA038038910555
:1007A00089F4F801808591852FEF2983EE24E39465
:1007B00010E000E09E012F5F3F4F42E1FC016285A7
:1007C0000E942A030F90DF91CF911F910F91EF901C
:1007D0000895CF93DF93EC010E94BA03803891050E
:1007E00061F48A89863061F063E1888599850E9489
:1007F0009D0390E0DF91CF91089589A19AA1FACF4E
:100800008FEF90E0F7CFCF92DF92EF92FF920F93AE
:100810001F93CF93DF93EC018B016A010E94BA030F
:100820007C01E881F9810280F381E02DCE010995F8
:1008300080E8E816F10411F5EFEFCE16D10449F483
:10084000E881F9810284F385E02D61E0CE0109950C
:100850006C0162E1888599850E949D0385FF0EC029
:10086000CE010E94C30389EF9FEFDF91CF911F91CB
:100870000F91FF90EF90DF90CF9008958885998534
:10088000EC2C30E020E040E0FC0161850E942A036E
:10089000E881F9810284F385E02D61E0CE010995BC
:1008A000C816D90658F48C010C191D0960E088851A
:1008B00099850E949D0301501109C1F71BA2CE0129
:1008C0000E94C30390E080E0D0CF3F924F925F92AE
:1008D0006F927F928F929F92AF92BF92CF92DF9250
:1008E000EF92FF920F931F93CF93DF931F92CDB799
:1008F000DEB7201708F464C06E2C122F742E362E2B
:100900006C010E949D0321E0210F6FEF70E0AB01AD
:1009100002C0440F551F2A95E2F79A0148E050E0C3
:10092000401B510902C0759567954A95E2F7262B41
:10093000F22EF0942823F720F22AF982EE24E39491
:1009400010E000E09E012F5F3F4F432DF6016285CE
:10095000C6010E942A030E94A1024B015C0188EE9D
:1009600093E0689E2001699E500C1124052C000C18
:10097000660877080E94A102681979098A099B090B
:100980006415750586059705F0F4632DC6010E9470
:100990009D03F812EFCF90E080E00F90DF91CF91B0
:1009A0001F910F91FF90EF90DF90CF90BF90AF908D
:1009B0009F908F907F906F905F904F903F900895A1
:1009C00085EF9FEFEACF80EF9FEFE7CFCF92DF92E7
:1009D000EF92FF920F93CF93DF9360939303709303
:1009E000940380939503909396032091A903222367
:1009F00091F16B017C01C0918D03D0918E03209108
:100A0000970361E070E080E090E004C0660F771F1C
:100A1000881F991F2A95D2F70E948411A701960179
:100A20000E945E1320E030E040E851E40E94401450
:100A300092E0E92E00E020E041E087FD40E06DE13A
:100A4000CE010E946504DF91CF910F91FF90EF904E
:100A5000DF90CF90089590E080E0F5CFEF920F9374
:100A6000462F25E0E22E00E022E061E0FC018085D7
:100A700091850E9465040F91EF900895CF92DF92C7
:100A8000EF920F93CF93DF9361E085E893E00E94AC
:100A90002E05EC018DE7C82E83E0D82E92E0E92EDA
:100AA00000E027E044EE66E0F601808991890E942B
:100AB0006504C82BD92B27E040EC67E0F60180895C
:100AC00091890E946504C82BD92B27E040E068E09B
:100AD000F601808991890E9465048C2B9D2BDF9102
:100AE000CF910F91EF90DF90CF9008950F931F93C8
:100AF000CF93DF938C01FC01C085D1858D8988233C
:100B000041F060E08E890E94F90260E08F890E94C6
:100B1000F90261E0C801DF91CF911F910F910C9410
:100B20002E05CF92DF92EF92FF920F931F93CF93F8
:100B3000DF93182F85E893E00E94BA03803891056F
:100B400009F084C040EBF42E1B3051F030ECF32E52
:100B50001C3031F050EAF52E1A3011F020E9F22E57
:100B600085E893E00E947605EC0192E0E92E01E031
:100B700022E042E06DE180918D0390918E030E940E
:100B800065046C0103E027E04F2D6EE180918D0339
:100B900090918E030E946504CC29DD29C82BD92BA6
:100BA00000E022E043E061E380918D0390918E03A9
:100BB0000E946504C82BD92B27E04AE067E38091A7
:100BC0008D0390918E030E9465048C2B9D2B0097C2
:100BD000A1F5109397032091A903222371F1C091ED
:100BE0008D03D0918E0361E070E080E090E004C05E
:100BF000660F771F881F991F1A95D2F70E948411DC
:100C00002091930330919403409195035091960362
:100C10000E945E1320E030E040E851E40E9440145E
:100C200020E041E087FF05C082E0E82E00E020E000
:100C300040E06DE1CE010E946504DF91CF911F91EC
:100C40000F91FF90EF90DF90CF9008958CEE9FEF83
:100C5000F4CFAF92BF92CF92DF92EF920F931F9398
:100C6000CF93DF9311E0180F133118F0843109F09E
:100C700076C0C82F85E893E00E9476056C01C230EB
:100C80008CF532E0E32E07E027E040E069E0809158
:100C90008D0390918E030E946504EC0100E023E037
:100CA000412F69E080918D0390918E030E9465042D
:100CB0008C2B9D2BC82AD92A22E044E06AE580913A
:100CC0008D0390918E030E946504C82AD92AC6011B
:100CD000DF91CF911F910F91EF90DF90CF90BF9058
:100CE000AF900895C231DCF422E0E22E07E027E065
:100CF00040E869E080918D0390918E030E94650425
:100D00005C014EEF4C0F00E023E069E080918D0321
:100D100090918E030E9465048A299B29CBCFC43110
:100D2000B1F692E0E92E07E027E040E869E0809123
:100D30008D0390918E030E946504EC0100E023E096
:100D40004FE069E080918D0390918E030E946504CD
:100D50008C2B9D2BC82AD92A22E047E0AFCF83EF06
:100D6000C82EDD24DA94B3CF6F927F928F929F9238
:100D7000AF92BF92CF92DF92EF920F931F93CF93D8
:100D8000DF93EC014B015A0161E00E942E056C01DA
:100D9000CE010E94BA038038910579F58FEFA8162D
:100DA000B10408F058C082E0E82E06E027E040E4F5
:100DB00060E4888599850E946504CE010E94C30382
:100DC00000E027E04A2D62E2888599850E9465044B
:100DD0003C0127E040E06EE0888599850E9465042B
:100DE00086299729C82AD92A27E040E06DE088851E
:100DF00099850E946504C82AD92A88859985EA2C94
:100E000010E000E0940140E0FC0162850E942A03AA
:100E1000A884B984F5018589882349F060E0868932
:100E20000E94F90261E0F50187890E94F90263E0FE
:100E3000CE010E942E058C299D29DF91CF911F9113
:100E40000F91EF90DF90CF90BF90AF909F908F90D9
:100E50007F906F9008958CEF9FEFEFCFAF92BF928E
:100E6000CF92DF92EF92FF920F931F93CF93DF9376
:100E7000EC015B01142FF52E61E00E942E05009716
:100E800009F072C0CE010E94BA038038910509F0C2
:100E90007BC061E0CE010E942E05009709F064C07E
:100EA000CE010E94BA038038910559F1C884D984D3
:100EB000F6018589882349F061E086890E94F9025C
:100EC00060E0F60187890E94F90266E0CE010E9487
:100ED0002E05009709F048C0E885F98584858F3F85
:100EE00009F04DC0E885F98586858F3FA9F30E94FA
:100EF0001902882389F3CE010E94C3038AEF9FEF72
:100F000033C092E0E92E04E027E040E060E4888509
:100F100099850E9465046C018A89863051F400E04D
:100F200027E0412F62E2888599850E946504C82ADE
:100F3000D92ACE010E94C30382E0E82E00E027E018
:100F400040E06FE0888599850E946504C82AD92A07
:100F500027E040E06DE0888599850E9465048C2932
:100F60009D29009709F4A2CFDF91CF911F910F9196
:100F7000FF90EF90DF90CF90BF90AF9008950E94C8
:100F80001902882309F4AECFE881F9810084F18544
:100F9000E02D412F5F2DB501CE01DF91CF911F9143
:100FA0000F91FF90EF90DF90CF90BF90AF9009949A
:100FB000FC0101900020E9F73197AF01481B590B64
:100FC000BC018FED92E00C94C8008F929F92AF927B
:100FD000BF920F931F93CF93DF93CDB7DEB7A19747
:100FE0000FB6F894DEBF0FBECDBF19A2423008F491
:100FF0004AE08E010F5D1F4F842E912CB12CA12C45
:10100000A50194010E944A14E62FB901CA01EA30F1
:10101000F4F4E05DD801EE938D01232B242B252BD6
:1010200079F790E080E0109719F0CD010E94D80781
:10103000A1960FB6F894DEBF0FBECDBFDF91CF9162
:101040001F910F91BF90AF909F908F900895E95C92
:10105000E1CFCF93DF93D0E0C0E0009719F00E947A
:10106000D807EC018FE291E00E94D8078C0F9D1FFA
:10107000DF91CF910895CF93DF930E94B501EC01EA
:101080008FE291E00E94D8078C0F9D1FDF91CF91D6
:101090000895CF92DF92EF92FF92CF93DF936C018E
:1010A000990FEE08FF08F7FE1FC06DE28FED92E08A
:1010B0000E946801EC0166277727CB016C197D0936
:1010C0008E099F094AE00E94E507C80FD91F8FE2E9
:1010D00091E00E94D8078C0F9D1FDF91CF91FF9068
:1010E000EF90DF90CF9008954AE0C701B6010E94CB
:1010F000E507EC01ECCF0E9454162F923F924F92DD
:101100005F926F927F928F929F92AF92BF92CF9297
:10111000DF92EF92FF920F931F93CF93DF93CDB7A0
:10112000DEB72F970FB6F894DEBF0FBECDBF9F87F7
:101130008E877D876C871A01022F61E00E942E0541
:10114000009709F041C18E859F850E94BA038038BF
:10115000910509F0ABC1AE85BF8552962C9161E037
:1011600070E080E090E004C0660F771F881F991F31
:101170002A95D2F70E948411EE85FF852685378552
:10118000408951890E945E134B015C0120E030E0F0
:1011900040E851E40E94401487FD2FC180E090E0B8
:1011A000A0E8BFE389839A83AB83BC836DE1AE85FE
:1011B000BF8518968D919C910E949D038B876EE14F
:1011C000EE85FF85808591850E949D03182F60E242
:1011D000AE85BF8518968D919C910E949D03F82E37
:1011E00061E2EE85FF85808591850E949D037F2DBC
:1011F000682F072E000C880B990B0E9486116F83B5
:10120000788789879A87AE85BF8552966C9170E002
:1012100090E080E00E94841120E030E040E850E45B
:101220000E94E5116B017C01B10190E080E00E9419
:10123000841120E030E040E051E40E94E511A70174
:1012400096010E94DA1220E030E040EE51E40E9464
:10125000DB122B013C0112FB112710F91D831E82AA
:10126000ED81FE81BF01FF0F880B990B0E94861153
:1012700020E030E040E851E40E94E5119B01AC0120
:10128000C301B2010E94DB122B013C016B8561702E
:10129000062E000C770B880B990B0E94861120E01C
:1012A00030E040EA51E40E94E5119B01AC01C3012A
:1012B000B2010E94DA122B013C0120E030E040E054
:1012C00051E469817A818B819C810E94E5119B01A7
:1012D000AC01C701B6010E94DA129B01AC01C30147
:1012E000B2010E945E130E9447136B017C01AE8520
:1012F000BF8553966C9170E090E080E00E9484116D
:10130000A70196010E94E5116B017C0120E030E00D
:10131000A9010E94401420E030E040E051E418169A
:1013200034F4C701B6010E94DB129B01AC016F814E
:10133000788589859A850E94DB1220E030E048E8B4
:1013400050E40E94DB12A50194010E94E51120E007
:1013500030E84BEB54E40E94E5110E9447132B0147
:101360003C01AE85BF85ED91FC9111970680F78118
:10137000E02D202FA1016C857D85CD010995009779
:1013800019F50E94A1026B017C01AE85BF851896FC
:10139000ED91FC9184858F3FA9F50E94A1024B013C
:1013A0005C01C301B2010E94D0138C189D08AE08E5
:1013B000BF08681579058A059B0538F78E859F85D6
:1013C0000E94C3038BEF9FEF2F960FB6F894DEBFFA
:1013D0000FBECDBFDF91CF911F910F91FF90EF9086
:1013E000DF90CF90BF90AF909F908F907F906F9045
:1013F0005F904F903F902F90089519821A821B8220
:101400001C82D4CE0E941902882339F20E94A102C4
:101410004B015C01B10190E080E00E94841120E06A
:1014200030E040E051E40E94E5112B013C01C50190
:10143000B4016C197D098E099F090E94841120E076
:1014400034E244E759E40E945E139B01AC01C301FE
:10145000B2010E945E13EE85FF85658F768F878FC0
:1014600090A3CF010E94C303AE85BF85ED91FC918F
:1014700011970280F381E02DCD012F960FB6F894DD
:10148000DEBF0FBECDBFDF91CF911F910F91FF90B7
:10149000EF90DF90CF90BF90AF909F908F907F9014
:1014A0006F905F904F903F902F900994892B21F47B
:1014B000C12CD12C7601AACF8FEF9FEF85CF1F9241
:1014C0000F920FB60F9211242F933F934F935F9378
:1014D0006F937F938F939F93AF93BF93EF93FF93FC
:1014E0008091D9029091DA02A091DB02B091DC02E6
:1014F000892B8A2B8B2BC1F19091D802809100000F
:101500008927809300008091D9029091DA02A091FE
:10151000DB02B091DC02181619061A061B069CF4B1
:101520008091D9029091DA02A091DB02B091DC02A5
:101530000197A109B1098093D9029093DA02A0938F
:10154000DB02B093DC02FF91EF91BF91AF919F91CD
:101550008F917F916F915F914F913F912F910F905C
:101560000FBE0F901F90189580910401E0E9F0E004
:10157000E4919FEF90930401E13051F030F0E230BC
:1015800069F060E00E944202DECF10926E00F9CF57
:1015900090916F009D7F90936F00F3CF90917000BA
:1015A0009D7F9093700091E09093B0009091B10076
:1015B000987F94609093B1001092B300E2CF1F9295
:1015C0000F920FB60F9211242F933F934F935F9377
:1015D0006F937F938F939F93AF93BF93EF93FF93FB
:1015E0008FED92E00E944601FF91EF91BF91AF9184
:1015F0009F918F917F916F915F914F913F912F912B
:101600000F900FBE0F901F9018951F920F920FB65C
:101610000F9211242F938F939F93EF93FF93E09159
:10162000EF02F091F0028081E091F502F091F60274
:1016300082FD1BC090818091F8028F5F8F73209193
:10164000F902821741F0E091F802F0E0E152FD4F1B
:10165000958F8093F802FF91EF919F918F912F9139
:101660000F900FBE0F901F9018958081F4CF1F929E
:101670000F920FB60F9211242F933F938F939F9346
:10168000AF93BF938091D0029091D102A091D202EA
:10169000B091D3023091CF0223E0230F2D3758F5BC
:1016A0000196A11DB11D2093CF028093D00290938B
:1016B000D102A093D202B093D3028091D402909130
:1016C000D502A091D602B091D7020196A11DB11DFD
:1016D0008093D4029093D502A093D602B093D70200
:1016E000BF91AF919F918F913F912F910F900FBE1E
:1016F0000F901F90189526E8230F0296A11DB11D8B
:10170000D2CF1F920F920FB60F9211242F933F93B7
:101710004F935F936F937F938F939F93AF93BF93F9
:10172000EF93FF93E0910201F09103010995FF917E
:10173000EF91BF91AF919F918F917F916F915F9149
:101740004F913F912F910F900FBE0F901F901895C2
:101750001F920F920FB60F9211242F933F934F9326
:101760005F936F937F938F939F93AF93BF93EF9309
:10177000FF93E0910001F09101010995FF91EF9134
:10178000BF91AF919F918F917F916F915F914F9199
:101790003F912F910F900FBE0F901F9018951F92A1
:1017A0000F920FB60F9211240F900FBE0F901F9043
:1017B00018951092E2021092E10288EE93E0A0E008
:1017C000B0E08093E3029093E402A093E502B0932B
:1017D000E6028FE091E09093E0028093DF0285ECD7
:1017E00090E09093EC028093EB0284EC90E0909375
:1017F000EE028093ED0280EC90E09093F0028093F3
:10180000EF0281EC90E09093F2028093F10282EC7F
:1018100090E09093F4028093F30286EC90E0909332
:10182000F6028093F5021092F8021092F9021092DB
:10183000FA021092FB0210927E0310927D03109226
:10184000800310927F03109282031092810361E063
:1018500070E090E080E00E9497150097E9F0909387
:101860007E0380937D031092800310927F0320916A
:10187000810330918203232B11F4FC01108210921A
:1018800082031092810361E371E080917D03909166
:101890007E030E94621614C080917D0390917E03A6
:1018A000009711F00E940E1510927E0310927D0396
:1018B00010928203109281031092800310927F0392
:1018C0008CE190E00E947214FC0180E895E2A0E0B7
:1018D000B0E082839383A483B58316821782108637
:1018E0008DE086838AE08783118690E892878387DC
:1018F00082E0848789E0858783E086879FEF9787EA
:1019000081E5808B81E0818B158A968B978B48E9E6
:101910005AE360E070E0408F518F628F738F2CE745
:1019200033E0348B238B828B1182108240E054E2AF
:1019300064E772E4409387035093880360938903BC
:1019400070938A032FEF30E030938C0320938B0346
:1019500010928F03109290031092910310929203B1
:101960001092930310929403109295031092960391
:1019700010929703109298031092990310929A0371
:1019800010929B0310929C0310929D0310929E0351
:1019900010929F031092A0031092A1031092A20331
:1019A0001092A3031092A4031092A5031092A70310
:1019B0001092A6031092A803F0938E03E0938D0378
:1019C00021E231E030938603209385038093A903BD
:1019D0001092AA030895789484B5826084BD84B57A
:1019E000816084BD85B5826085BD85B5816085BD1A
:1019F00080916E00816080936E00109281008091D2
:101A00008100826080938100809181008160809359
:101A10008100809180008160809380008091B1007E
:101A200084608093B1008091B00081608093B000A9
:101A300080917A00846080937A0080917A0082603D
:101A400080937A0080917A00816080937A008091FF
:101A50007A00806880937A001092C100E091EF02D2
:101A6000F091F00282E08083E091EB02F091EC02D1
:101A70001082E091ED02F091EE0280E180831092FD
:101A8000F702E091F302F091F40286E08083E091A6
:101A9000F102F091F202808180618083E091F10295
:101AA000F091F202808188608083E091F102F091F0
:101AB000F202808180688083E091F102F091F2026D
:101AC00080818F7D80838AED90E00E94B501C09176
:101AD0008D03D0918E038B858F3F19F061E00E94BA
:101AE000700261E08B850E94F9028A89882309F4DB
:101AF00033C0CFB7F8948091DE02811127C0E9EBA3
:101B0000F0E08491E5EAF0E09491E82FF0E0EE0F48
:101B1000FF1FEF56FF4FA591B491EC91E92321F4FB
:101B200061E08AE00E94420261E08AE00E94700265
:101B30008CB580618CBD8CB580648CBD61E08DE01E
:101B40000E94700261E08BE00E9470028091DE02D0
:101B50008F5F8093DE02CFBFE0918D03F0918E0303
:101B600084858F3F19F060E00E947002E0918D0340
:101B7000F0918E0386858F3F19F060E00E9470021D
:101B8000C0E085E893E00E94FE0262E480918D034C
:101B900090918E030E949D038232D1F485E893E0F8
:101BA0000E947605009709F06AC085E893E00E94DC
:101BB000BA038038910509F044C085E893E00E949B
:101BC000BA038038910509F4B5C08CEE9FEF12C0BE
:101BD0006AE070E080E090E00E94C602CF5FCA3009
:101BE00081F6E0918D03F0918E038289811111C0FD
:101BF0008EEF9FEF909384038093830383EC90E0B8
:101C00000E94B50180918303909184030E9449084A
:101C1000FFCF83899489892B59F39FB7F8948091DA
:101C2000DE02882319F081508093DE028091DE026B
:101C3000811105C08CB58F7B8CBD1092DD029FBFDA
:101C4000D7CF60E085E893E00E942E05EC0145E0E7
:101C5000E42E07E027E040E861E080918D03909159
:101C60008E030E946504C82BD92B61E085E893E0C0
:101C70000E942E058C2B9D2B009709F49ECF9093EC
:101C8000840380938303892B09F0B8CF81ED90E022
:101C90000E943B080E943E05009761F440E050EC32
:101CA00064E674E440938F03509390036093910330
:101CB000709392039093840380938303892B09F09C
:101CC00029C11F921F9283E08F9383E98F9382E350
:101CD00091E09F938F931F9282E38F938BEA93E01F
:101CE0009F938F930E9469168BEA93E00E942908C4
:101CF00085E893E00E94BA032DB73EB7265F3F4FB9
:101D00000FB6F8943EBF0FBE2DBF8038910509F481
:101D10000CC18CEE9FEF909384038093830388E93A
:101D200091E00E94D80780918303909184030E94E0
:101D30004908FFCF61E085E893E00E942E0532E07C
:101D4000E32E00E027E042E169E380918D0390916A
:101D50008E030E946504009709F091CF61E085E849
:101D600093E00E942E05EC0125E043E26BE08091B8
:101D70008D0390918E030E9465048C2B9D2B009700
:101D800009F07DCF61E085E893E00E942E05009781
:101D900009F075CF85E893E00E94BA03803819F006
:101DA0008FEF9FEF27CF22E0E22E00E027E040E018
:101DB00060E280918D0390918E030E946504EC0196
:101DC00027E048E061E280918D0390918E030E94AC
:101DD00065048C2B9D2B009709F051CF1092A20324
:101DE0001092A3031092A4031092A50327E040E0F1
:101DF00064E280918D0390918E030E9465040097A8
:101E000009F03DCF07E027E040E861E380918D03D2
:101E100090918E030E946504009709F030CF0E94D4
:101E20003E05009709F02BCF80E090ECA4E6B4E4E7
:101E300080938F0390939003A0939103B0939203A8
:101E400085E893E00E94BA038038910509F0BDCE81
:101E500085E893E00E947605EC0106E027E040E08B
:101E60006DE180918D0390918E030E9465048C2B0F
:101E70009D2B009709F003CF60E070E08AEF92E4B9
:101E80000E94E604009709F0FACE89E00E949105CD
:101E9000009709F0F4CE85E893E00E94BA038038F9
:101EA000910509F092CE85E893E00E947605EC0159
:101EB00003E025E048E16DE180918D0390918E0370
:101EC0000E9465048C2B9D2B009709F0D8CE87E0EB
:101ED000809398038AE00E942906009709F0CFCEEC
:101EE00085E893E00E94BA038038910509F06DCE31
:101EF00085E893E00E947605EC0102E022E044E0F0
:101F00006EE180918D0390918E030E9465048C2B6D
:101F10009D2BB5CE89E591E00E94D807809183037F
:101F2000909184030E944908FFCF85E893E00E94C6
:101F30007605EC0192E0E92E06E027E040E46DE151
:101F400080918D0390918E030E9465048C2B9D2BB4
:101F5000009731F460E070E08AE793E40E94E604C1
:101F60009093840380938303892B09F0D8CE1F922A
:101F70001F921F928AEF8F9385E791E09F938F9333
:101F80001F9212E31F93CBEAD3E0DF93CF930E941B
:101F90006916CE010E94290881E10E9429069093CA
:101FA0008403809383032DB73EB7265F3F4F0FB660
:101FB000F8943EBF0FBE2DBF892B59F085ED91E0FF
:101FC0000E94D80780918303909184030E9449085E
:101FD000FFCF1F9281E18F9384EB91E09F938F93CA
:101FE0001F921F93DF93CF930E9469168BEA93E0B1
:101FF0000E9429088CE00E949105909384038093AD
:1020000083032DB73EB7285F3F4F0FB6F8943EBF0E
:102010000FBE2DBF892B59F089E192E00E94D807AD
:1020200080918303909184030E944908FFCF1F92FF
:102030008CE08F9384EF91E09F938F931F921F9377
:10204000DF93CF930E9469168BEA93E00E942908E0
:1020500085E893E00E94BA032DB73EB7285F3F4F53
:102060000FB6F8943EBF0FBE2DBF8038910589F0A2
:102070008CEE9FEF909384038093830388E792E034
:102080000E94D80780918303909184030E9449089D
:10209000FFCF85E893E00E947605EC0182E0E82E10
:1020A00003E025E040E26DE180918D0390918E0385
:1020B0000E9465048C2B9D2B009719F428E0209337
:1020C00098039093840380938303892BB9F61F921E
:1020D00088E08F938CE392E09F938F931F9282E32B
:1020E0008F938BEA93E09F938F930E9469168BEAFC
:1020F00093E00E9429088CE592E00E9429088DB7A0
:102100009EB708960FB6F8949EBF0FBE8DBFC0E075
:10211000D0E086E992E00E94290820E04CE050E0FF
:1021200068EA72E085E893E00E947D08909384035A
:1021300080938303009709F0C2C082E091E00E947F
:102140003B0887EF90E00E94B501C090A203D090B9
:10215000A303E090A403F090A503A7019601C70193
:10216000B6010E9445148823C1F085EB92E00E94DD
:10217000D80782EF90E00E943B0868EE73E080E0B1
:1021800090E00E94C602209721F20E94320188232B
:1021900009F4BFCF0E940000BCCF46015701E8946C
:1021A000B7F82FEF3FEF4FE75FE7C501B4010E949B
:1021B000451481110DC02FEF3FEF4FE75FE7C501D9
:1021C000B4010E947F1118161CF489EB92E0CFCF66
:1021D0002FEF3FEF4FE75FE4C701B6010E944014C5
:1021E00018161CF48DEB92E0C2CF2FEF3FEF4FE7B4
:1021F0005FECC701B6010E947F1187FDF3CF20E09D
:1022000030E0A901C701B6010E947F1187FF09C014
:102210006DE28FED92E00E946801F7FAF094F7F812
:10222000F0942AE037ED43EA5BE3C701B6010E9470
:10223000DB124B015C010E94D0136B017C010E94F8
:1022400084119B01AC01C501B4010E94DA124B015B
:102250005C014AE0C701B6010E94E5076EE28FED1E
:1022600092E00E94680120E030E040E251E4C501C4
:10227000B4010E94E5114B015C010E94D0136B0177
:10228000F12CE12C4AE0C701B6010E94E507C70125
:10229000B6010E9484119B01AC01C501B4010E94EA
:1022A000DA1220E030E040E251E40E94E5110E94A1
:1022B000D01390E080E04AE00E94E5075ACF8C3FBF
:1022C0002FEF920719F48EE291E055CF059619F49D
:1022D00085E291E050CF87E191E00E94B5018091C5
:1022E0008303909184030E94490847CF80917D0326
:1022F00090917E03009711F00C940E1508950E94A2
:10230000C11108F481E00895E89409C097FB3EF4F8
:1023100090958095709561957F4F8F4F9F4F992332
:10232000A9F0F92F96E9BB279395F69587957795B0
:102330006795B795F111F8CFFAF4BB0F11F460FF70
:102340001BC06F5F7F4F8F4F9F4F16C0882311F0C8
:1023500096E911C0772321F09EE8872F762F05C0DC
:10236000662371F096E8862F70E060E02AF09A9577
:10237000660F771F881FDAF7880F9695879597F96C
:102380000895990F0008550FAA0BE0E8FEEF161606
:102390001706E807F907C0F012161306E407F50759
:1023A00098F0621B730B840B950B39F40A2661F0CD
:1023B000232B242B252B21F408950A2609F4A14070
:1023C000A6958FEF811D811D08950E94F8110C9430
:1023D00069120E945B1238F00E94621220F095236D
:1023E00011F00C9452120C94581211240C949D125A
:1023F0000E947A1270F3959FC1F3950F50E0551F1C
:10240000629FF001729FBB27F00DB11D639FAA2749
:10241000F00DB11DAA1F649F6627B00DA11D661F98
:10242000829F2227B00DA11D621F739FB00DA11DB9
:10243000621F839FA00D611D221F749F3327A00D73
:10244000611D231F849F600D211D822F762F6A2F0F
:1024500011249F5750409AF0F1F088234AF0EE0F74
:10246000FF1FBB1F661F771F881F91505040A9F7A1
:102470009E3F510580F00C9452120C949D125F3FC8
:10248000E4F3983ED4F3869577956795B795F795DD
:10249000E7959F5FC1F7FE2B880F911D9695879555
:1024A00097F9089597F99F6780E870E060E00895D4
:1024B0009FEF80EC089500240A941616170618065C
:1024C0000906089500240A94121613061406050638
:1024D0000895092E0394000C11F4882352F0BB0FC9
:1024E00040F4BF2B11F460FF04C06F5F7F4F8F4F2C
:1024F0009F4F089557FD9058440F551F59F05F3F67
:1025000071F04795880F97FB991F61F09F3F79F015
:1025100087950895121613061406551FF2CF469597
:10252000F1DF08C0161617061806991FF1CF869519
:102530007105610508940895E894BB2766277727FD
:10254000CB0197F908952F923F924F925F926F922D
:102550007F928F929F92AF92BF92CF92DF92EF9233
:10256000FF920F931F93CF93DF93CDB7DEB7CA1BB4
:10257000DB0B0FB6F894DEBF0FBECDBF09942A88DF
:10258000398848885F846E847D848C849B84AA8487
:10259000B984C884DF80EE80FD800C811B81AA8114
:1025A000B981CE0FD11D0FB6F894DEBF0FBECDBFDF
:1025B000ED0108955058BB27AA270E94F2120C94EF
:1025C00069120E945B1238F00E94621220F039F406
:1025D0009F3F19F426F40C9458120EF4E095E7FB93
:1025E0000C945212E92F0E947A1258F3BA1762071C
:1025F00073078407950720F079F4A6F50C949C12D4
:102600000EF4E0950B2EBA2FA02D0B01B90190010D
:102610000C01CA01A0011124FF27591B99F0593F51
:1026200050F4503E68F11A16F040A22F232F342F99
:102630004427585FF3CF469537952795A795F040E7
:102640005395C9F77EF41F16BA0B620B730B840BFC
:10265000BAF09150A1F0FF0FBB1F661F771F881FB4
:10266000C2F70EC0BA0F621F731F841F48F487950C
:1026700077956795B795F7959E3F08F0B0CF9395FE
:10268000880F08F09927EE0F9795879508950E9477
:10269000281490F09F3748F4911116F40C949D1271
:1026A00060E070E080E89FE3089526F01B16611D4E
:1026B000711D811D0C94FF130C941A140E94721347
:1026C0000C9469120E94621258F00E945B1240F052
:1026D00029F45F3F29F00C94521251110C949D1271
:1026E0000C9458120E947A1268F39923B1F355237F
:1026F00091F3951B550BBB27AA2762177307840715
:1027000038F09F5F5F4F220F331F441FAA1FA9F3AA
:1027100035D00E2E3AF0E0E832D091505040E69598
:10272000001CCAF72BD0FE2F29D0660F771F881FF9
:10273000BB1F261737074807AB07B0E809F0BB0BEC
:10274000802DBF01FF2793585F4F3AF09E3F510500
:1027500078F00C9452120C949D125F3FE4F3983E73
:10276000D4F3869577956795B795F7959F5FC9F7E9
:10277000880F911D9695879597F90895E1E0660F6A
:10278000771F881FBB1F621773078407BA0720F0E3
:10279000621B730B840BBA0BEE1F88F7E09508954C
:1027A0000E94821288F09F5798F0B92F9927B7514D
:1027B000B0F0E1F0660F771F881F991F1AF0BA95E5
:1027C000C9F714C0B13091F00E949C12B1E0089595
:1027D0000C949C12672F782F8827B85F39F0B93F87
:1027E000CCF3869577956795B395D9F73EF4909598
:1027F0008095709561957F4F8F4F9F4F08958823E7
:1028000071F4772321F09850872B762F07C0662329
:1028100011F499270DC09051862B70E060E02AF0EA
:102820009A95660F771F881FDAF7880F9695879518
:1028300097F908959F3F31F0915020F4879577954F
:102840006795B795880F911D9695879597F9089587
:102850000E948212A0F0BEE7B91788F4BB279F3808
:1028600060F41616B11D672F782F8827985FF7CF71
:10287000869577956795B11D93959639C8F3089518
:102880000E94C11108F48FEF08950E94C111880BB6
:10289000990B0895A1E21A2EAA1BBB1BFD010DC0C6
:1028A000AA1FBB1FEE1FFF1FA217B307E407F50700
:1028B00020F0A21BB30BE40BF50B661F771F881FDC
:1028C000991F1A9469F760957095809590959B0172
:1028D000AC01BD01CF010895EE0FFF1F0590F491EB
:1028E000E02D09940F931F93CF93DF9382309105CE
:1028F00010F482E090E0E091DF03F091E00330E03B
:1029000020E0B0E0A0E0309799F42115310509F4FA
:102910004AC0281B390B24303105D8F58A819B81A8
:102920006115710589F1FB0193838283FE0111C05A
:10293000408151810281138148175907E0F04817FF
:10294000590799F4109761F012960C931297139609
:102950001C933296CF01DF91CF911F910F91089573
:102960000093DF031093E003F4CF2115310551F0FC
:102970004217530738F0A901DB019A01BD01DF01BD
:10298000F801C1CFEF01F9CF9093E0038093DF030B
:10299000CDCFFE01E20FF31F8193919322503109B5
:1029A00039832883D7CF2091DD033091DE03232B99
:1029B00041F420910701309108013093DE03209308
:1029C000DD0320910501309106012115310541F407
:1029D0002DB73EB74091090150910A01241B350BD8
:1029E000E091DD03F091DE03E217F307A0F42E1B64
:1029F0003F0B2817390778F0AC014E5F5F4F241763
:102A0000350748F04E0F5F1F5093DE034093DD0300
:102A1000819391939FCFF0E0E0E09CCFCF93DF9341
:102A20000097E9F0FC01329713821282A091DF0334
:102A3000B091E003ED0130E020E01097A1F4208197
:102A40003181820F931F2091DD033091DE0328171F
:102A5000390709F061C0F093DE03E093DD03DF91F5
:102A6000CF910895EA01CE17DF07E8F54A815B812F
:102A70009E0141155105B1F7E901FB83EA834991B4
:102A80005991C40FD51FEC17FD0761F48081918126
:102A90000296840F951FE90199838883828193812F
:102AA0009B838A83F0E0E0E012968D919C911397CE
:102AB0000097B9F52D913C911197CD010296820FA7
:102AC000931F2091DD033091DE032817390739F673
:102AD000309751F51092E0031092DF03B093DE03BC
:102AE000A093DD03BCCFD383C28340815181840F87
:102AF000951FC817D90761F44E5F5F4F8881998190
:102B0000480F591F518340838A819B81938382831D
:102B10002115310509F0B0CFF093E003E093DF0316
:102B20009ECFFD01DC01C0CF13821282D7CFB0E06F
:102B3000A0E0EDE9F5E10C94A5128C01009751F4A9
:102B4000CB010E9472148C01C801CDB7DEB7E0E161
:102B50000C94C112FC01E60FF71F9C0122503109B1
:102B6000E217F30708F49DC0D901CD91DC911197CC
:102B7000C617D70798F0C530D10530F3CE010497BA
:102B80008617970708F3C61BD70B2297C193D193DB
:102B90006D937C93CF010E940E15D6CF5B01AC1ACA
:102BA000BD0A4C018C0E9D1EA091DF03B091E00385
:102BB000512C412CF12CE12C109731F58091DD0343
:102BC0009091DE038815990509F05CC046165706FA
:102BD00008F058C08091050190910601009741F4DA
:102BE0008DB79EB74091090150910A01841B950B46
:102BF000E817F90708F055C0F093DE03E093DD0312
:102C0000F90171836083A0CF8D919C9111971296E9
:102C10006C90129713967C901397A815B90559F5E7
:102C20006C0142E0C40ED11CCA14DB0420F1AC01DB
:102C30004A195B09DA011296159780F06282738255
:102C400051834083D9016D937C93E114F10471F0B9
:102C5000D7011396FC93EE93129776CF22968C0FA2
:102C60009D1FF90191838083F301EFCFF093E0037F
:102C7000E093DF0369CF4816590608F42C017D0163
:102C8000D3019ACFCB010E9472147C01009749F0C6
:102C9000AE01B8010E945916C8010E940E158701A5
:102CA00053CF10E000E050CF81E090E0F8940C9416
:102CB0001719FB01DC0102C001900D9241505040F8
:102CC000D8F70895FB01DC0101900D920020E1F797
:102CD0000895AEE0B0E0EFE6F6E10C94B1120D8994
:102CE0001E898F89988D26E02C831A83098397FF8C
:102CF00002C080E090E801979E838D83AE01455E1F
:102D00005F4F698D7A8DCE0101960E9499164D8193
:102D10005E8157FD0AC02F813885421753070CF496
:102D20009A01020F131FF80110822E96E4E00C9412
:102D3000CD12ABE0B0E0EFE9F6E10C94A3127C0118
:102D40003B018A01FC0117821682838181FFC8C181
:102D5000CE0101965C01F7019381F30193FD85910A
:102D600093FF81913F01882309F453C1853239F4DF
:102D700093FD859193FF81913F01853229F4B7013D
:102D800090E00E948918E7CF912C212C312CFFE193
:102D9000F31538F08B3211F190F4803209F183325F
:102DA00029F137FC3CC020ED280F2A3050F536FEC3
:102DB00020C08AE0989E200D1124922E06C08D32EC
:102DC00091F0803371F7689430F8F30193FD8591A9
:102DD00093FF81913F018111DACF21C0689431F8CE
:102DE000689432F8F2CF689433F8EFCF689434F8EF
:102DF000ECCFEAE02E9E200D1124222E689435F8A7
:102E0000E4CF8E3229F436FC04C1689436F8DDCF65
:102E10008C3619F4689437F8D8CF8836B1F2982FE9
:102E20009F7D95549330E0F08336A1F18337C1F153
:102E3000833509F063C02801F2E04F0E511CF80100
:102E4000C080D180692D70E036FC02C06FEF7FEF4B
:102E5000C6010E9473184C01689437F882010AC0B9
:102E60000C5F1F4FFFE3F98388248394912C650145
:102E7000E89437F833FE2DC0522C8114910471F57B
:102E8000552009F468CFB70180E290E00E948918CC
:102E90005A94F6CFF801808189830E5F1F4FE4CFEB
:102EA0002801F2E04F0E511CF801C080D180692D3D
:102EB00070E036FC02C06FEF7FEFC6010E947E1803
:102EC0004C018201D5CFB70180E290E00E948918C1
:102ED0002A942814190409F0B0F7CECFF60137FC74
:102EE000859137FE81916F01B70190E00E948918AA
:102EF00051105A94F1E08F1A9108BFCF843619F01F
:102F0000893609F077C0F80137FE6BC060817181A6
:102F1000828193810C5F1F4FF32DFF763F2E97FF29
:102F200009C090958095709561957F4F8F4F9F4F09
:102F3000689437F82AE030E0A5010E94B918C82E3D
:102F4000CA188C2C432C36FE0CC0E89440F8C914E7
:102F500040F434FE05C032FC03C0F32DFE7E4F2E3C
:102F6000892C44FE95C0FE01EC0DF11D808180335B
:102F700009F087C0242D297E422E842D8870582E7A
:102F800043FC95C040FE8FC09C2C821418F42C0C7E
:102F9000922C981844FE91C0B70180E390E00E9403
:102FA000891842FE09C088E790E041FE02C088E52A
:102FB00090E0B7010E948918C91408F48AC0CA9425
:102FC000D12C9FEFC91AD90ACA0CDB1CF6018291D9
:102FD0006F01B70190E00E948918AC14BD04B1F7ED
:102FE0004FCF60817181072E000C880B990B0E5F0B
:102FF0001F4F92CFD32CE894D4F82AE030E08537E5
:1030000039F1232D297FD22E8F3601F148F48835EE
:10301000A9F0F701868197812B96E2E10C94BF120B
:10302000803749F08837A9F7D4FE02C06894D2F8F7
:1030300020E130E00DC06894D4F8F6CF34FE03C030
:10304000822F8660D82E20E132E002C028E030E0F6
:10305000F801D7FE0FC060817181828193810C5F7E
:103060001F4FA5010E94B918C82ECA183D2CE8941C
:1030700037F867CF6081718190E080E00E5F1F4F6D
:10308000F0CF42FC02C0839478CF8394839475CFB1
:10309000842D867809F471CFF6CFB70180E290E0F5
:1030A0000E94891883948214C0F3512C73CF522C40
:1030B0005818821408F46ECFF8CF842D867809F45E
:1030C0007BCF8BE241FE80E247FC8DE2B70190E0CE
:1030D00071CFB70180E390E00E9489189A946CCF79
:1030E0008FEF9FEF99CFFC01059061507040011068
:1030F000D8F7809590958E0F9F1F0895FC01615021
:10310000704001900110D8F7809590958E0F9F1F09
:1031100008950F931F93CF93DF93182F092FEB017F
:103120008B8181FD09C01FEF0FEF812F902FDF9161
:10313000CF911F910F91089582FF14C02E813F817E
:103140008C819D81281739073CF4E881F981CF01F2
:1031500001969983888310838E819F8101969F8336
:103160008E83E3CFE885F985812F0995892BA1F31B
:10317000DACFFA01AA27283051F1203181F1E89401
:103180006F936E7F6E5F7F4F8F4F9F4FAF4FB1E05A
:103190003ED0B4E03CD0670F781F891F9A1FA11D55
:1031A000680F791F8A1F911DA11D6A0F711D811D56
:1031B000911DA11D20D009F468943F912AE0269F1B
:1031C00011243019305D3193DEF6CF010895462F7A
:1031D0004770405D4193B3E00FD0C9F7F6CF462F5B
:1031E0004F70405D4A3318F0495D31FD40524193C4
:1031F00002D0A9F7EACFB4E0A69597958795779581
:103200006795BA95C9F700976105710508959B0107
:10321000AC010A2E06945795479537952795BA9590
:10322000C9F7620F731F841F951FA01D089510E03A
:10323000CDE9D0E004C0FE010E946C142196CE3985
:08324000D107C9F7F894FFCF94
:10324800F802F802FF0000E10380000000000068B7
:1032580001C800F500D00126010401180100000092
:10326800007D0876052E07B4060304E903FE020D67
:103278000A004672657175656E63792073657420FE
:10328800746F2025642E25303164204D487A2C2017
:103298007375636365737321004672657175656E36
:1032A800637920736574206661696C65642C20639A
:1032B8006F6465200042616E647769647468207386
:1032C800657420746F2025642E253031642C20739A
:1032D800756363657373210042616E647769647412
:1032E8006820736574206661696C65642C20636F5F
:1032F800646520004F757470757420506F7765721F
:103308002073657420746F2025642C2073756363A3
:1033180065737321004F757470757420506F7765ED
:103328007220736574206661696C65642C20636F14
:1033380064652000537072656164696E6720666118
:1033480063746F722073657420746F2025642C2059
:103358007375636365737321005370726561646983
:103368006E6720466163746F7220736574206661AE
:10337800696C65642C20636F64652000436F646921
:103388006E6720526174652073657420746F202500
:10339800642C20737563636573732100546865201A
:1033A800726164696F20697320726561647920664F
:1033B8006F72207573652100436F64696E672052D0
:1033C80061746520736574206661696C65642C207E
:1033D800636F646520005472616E736D69747469FB
:1033E8006E6720446174610048656C6C6F20576F8C
:1033F800726C6421006E616E00696E66006F76669D
:023408000000C2
:00000001FF
